{
  "contractName": "MultiSignatureWallet",
  "abi": [
    {
      "constant": true,
      "inputs": [
        {
          "name": "",
          "type": "uint256"
        }
      ],
      "name": "owners",
      "outputs": [
        {
          "name": "",
          "type": "address"
        }
      ],
      "payable": false,
      "stateMutability": "view",
      "type": "function"
    },
    {
      "constant": true,
      "inputs": [
        {
          "name": "",
          "type": "address"
        }
      ],
      "name": "isOwner",
      "outputs": [
        {
          "name": "",
          "type": "bool"
        }
      ],
      "payable": false,
      "stateMutability": "view",
      "type": "function"
    },
    {
      "constant": true,
      "inputs": [
        {
          "name": "",
          "type": "uint256"
        },
        {
          "name": "",
          "type": "address"
        }
      ],
      "name": "confirmations",
      "outputs": [
        {
          "name": "",
          "type": "bool"
        }
      ],
      "payable": false,
      "stateMutability": "view",
      "type": "function"
    },
    {
      "constant": true,
      "inputs": [
        {
          "name": "",
          "type": "uint256"
        }
      ],
      "name": "transactions",
      "outputs": [
        {
          "name": "executed",
          "type": "bool"
        },
        {
          "name": "destination",
          "type": "address"
        },
        {
          "name": "value",
          "type": "uint256"
        },
        {
          "name": "data",
          "type": "bytes"
        }
      ],
      "payable": false,
      "stateMutability": "view",
      "type": "function"
    },
    {
      "constant": true,
      "inputs": [],
      "name": "transactionCount",
      "outputs": [
        {
          "name": "",
          "type": "uint256"
        }
      ],
      "payable": false,
      "stateMutability": "view",
      "type": "function"
    },
    {
      "constant": true,
      "inputs": [],
      "name": "required",
      "outputs": [
        {
          "name": "",
          "type": "uint256"
        }
      ],
      "payable": false,
      "stateMutability": "view",
      "type": "function"
    },
    {
      "inputs": [
        {
          "name": "_owners",
          "type": "address[]"
        },
        {
          "name": "_required",
          "type": "uint256"
        }
      ],
      "payable": false,
      "stateMutability": "nonpayable",
      "type": "constructor"
    },
    {
      "payable": true,
      "stateMutability": "payable",
      "type": "fallback"
    },
    {
      "anonymous": false,
      "inputs": [
        {
          "indexed": true,
          "name": "sender",
          "type": "address"
        },
        {
          "indexed": false,
          "name": "value",
          "type": "uint256"
        }
      ],
      "name": "Deposit",
      "type": "event"
    },
    {
      "anonymous": false,
      "inputs": [
        {
          "indexed": true,
          "name": "transactionId",
          "type": "uint256"
        }
      ],
      "name": "Submission",
      "type": "event"
    },
    {
      "anonymous": false,
      "inputs": [
        {
          "indexed": true,
          "name": "sender",
          "type": "address"
        },
        {
          "indexed": true,
          "name": "transactionId",
          "type": "uint256"
        }
      ],
      "name": "Confirmation",
      "type": "event"
    },
    {
      "anonymous": false,
      "inputs": [
        {
          "indexed": true,
          "name": "sender",
          "type": "address"
        },
        {
          "indexed": true,
          "name": "transactionId",
          "type": "uint256"
        }
      ],
      "name": "ConfirmationRevoked",
      "type": "event"
    },
    {
      "anonymous": false,
      "inputs": [
        {
          "indexed": true,
          "name": "transactionId",
          "type": "uint256"
        }
      ],
      "name": "Execution",
      "type": "event"
    },
    {
      "anonymous": false,
      "inputs": [
        {
          "indexed": true,
          "name": "transactionId",
          "type": "uint256"
        }
      ],
      "name": "ExecutionFailure",
      "type": "event"
    },
    {
      "constant": false,
      "inputs": [
        {
          "name": "destination",
          "type": "address"
        },
        {
          "name": "value",
          "type": "uint256"
        },
        {
          "name": "data",
          "type": "bytes"
        }
      ],
      "name": "submitTransaction",
      "outputs": [
        {
          "name": "transactionId",
          "type": "uint256"
        }
      ],
      "payable": false,
      "stateMutability": "nonpayable",
      "type": "function"
    },
    {
      "constant": false,
      "inputs": [
        {
          "name": "transactionId",
          "type": "uint256"
        }
      ],
      "name": "confirmTransaction",
      "outputs": [],
      "payable": false,
      "stateMutability": "nonpayable",
      "type": "function"
    },
    {
      "constant": false,
      "inputs": [
        {
          "name": "transactionId",
          "type": "uint256"
        }
      ],
      "name": "revokeConfirmation",
      "outputs": [],
      "payable": false,
      "stateMutability": "nonpayable",
      "type": "function"
    },
    {
      "constant": false,
      "inputs": [
        {
          "name": "transactionId",
          "type": "uint256"
        }
      ],
      "name": "executeTransaction",
      "outputs": [],
      "payable": false,
      "stateMutability": "nonpayable",
      "type": "function"
    }
  ],
  "bytecode": "0x60806040523480156200001157600080fd5b506040516200162138038062001621833981018060405260408110156200003757600080fd5b8101908080516401000000008111156200005057600080fd5b828101905060208101848111156200006757600080fd5b81518560208202830111640100000000821117156200008557600080fd5b50509291906020018051906020019092919050505081518181811180620000ac5750600081145b80620000b85750600082145b1562000110576040517f08c379a0000000000000000000000000000000000000000000000000000000008152600401808060200182810382526024815260200180620015fd6024913960400191505060405180910390fd5b60008090505b84518110156200019a576001600260008784815181106200013357fe5b602002602001015173ffffffffffffffffffffffffffffffffffffffff1673ffffffffffffffffffffffffffffffffffffffff16815260200190815260200160002060006101000a81548160ff021916908315150217905550808060010191505062000116565b508360009080519060200190620001b3929190620001c5565b5082600181905550505050506200029a565b82805482825590600052602060002090810192821562000241579160200282015b82811115620002405782518260006101000a81548173ffffffffffffffffffffffffffffffffffffffff021916908373ffffffffffffffffffffffffffffffffffffffff16021790555091602001919060010190620001e6565b5b50905062000250919062000254565b5090565b6200029791905b808211156200029357600081816101000a81549073ffffffffffffffffffffffffffffffffffffffff0219169055506001016200025b565b5090565b90565b61135380620002aa6000396000f3fe6080604052600436106100915760003560e01c8063b77bf60011610059578063b77bf60014610376578063c01a8c84146103a1578063c6427474146103dc578063dc8452cd146104e2578063ee22610b1461050d57610091565b8063025e7c27146100eb57806320ea8d86146101665780632f54bf6e146101a15780633411c81c1461020a5780639ace38c21461027d575b60003411156100e9573373ffffffffffffffffffffffffffffffffffffffff167fe1fffcc4923d04b559f4d29a8bfc6cda04eb5b0d3c460751c2402c5c5cc9109c346040518082815260200191505060405180910390a25b005b3480156100f757600080fd5b506101246004803603602081101561010e57600080fd5b8101908080359060200190929190505050610548565b604051808273ffffffffffffffffffffffffffffffffffffffff1673ffffffffffffffffffffffffffffffffffffffff16815260200191505060405180910390f35b34801561017257600080fd5b5061019f6004803603602081101561018957600080fd5b8101908080359060200190929190505050610584565b005b3480156101ad57600080fd5b506101f0600480360360208110156101c457600080fd5b81019080803573ffffffffffffffffffffffffffffffffffffffff169060200190929190505050610886565b604051808215151515815260200191505060405180910390f35b34801561021657600080fd5b506102636004803603604081101561022d57600080fd5b8101908080359060200190929190803573ffffffffffffffffffffffffffffffffffffffff1690602001909291905050506108a6565b604051808215151515815260200191505060405180910390f35b34801561028957600080fd5b506102b6600480360360208110156102a057600080fd5b81019080803590602001909291905050506108d5565b60405180851515151581526020018473ffffffffffffffffffffffffffffffffffffffff1673ffffffffffffffffffffffffffffffffffffffff16815260200183815260200180602001828103825283818151815260200191508051906020019080838360005b8381101561033857808201518184015260208101905061031d565b50505050905090810190601f1680156103655780820380516001836020036101000a031916815260200191505b509550505050505060405180910390f35b34801561038257600080fd5b5061038b6109ca565b6040518082815260200191505060405180910390f35b3480156103ad57600080fd5b506103da600480360360208110156103c457600080fd5b81019080803590602001909291905050506109d0565b005b3480156103e857600080fd5b506104cc600480360360608110156103ff57600080fd5b81019080803573ffffffffffffffffffffffffffffffffffffffff169060200190929190803590602001909291908035906020019064010000000081111561044657600080fd5b82018360208201111561045857600080fd5b8035906020019184600183028401116401000000008311171561047a57600080fd5b91908080601f016020809104026020016040519081016040528093929190818152602001838380828437600081840152601f19601f820116905080830192505050505050509192919290505050610cdb565b6040518082815260200191505060405180910390f35b3480156104ee57600080fd5b506104f7610db9565b6040518082815260200191505060405180910390f35b34801561051957600080fd5b506105466004803603602081101561053057600080fd5b8101908080359060200190929190505050610dbf565b005b6000818154811061055557fe5b906000526020600020016000915054906101000a900473ffffffffffffffffffffffffffffffffffffffff1681565b600260003373ffffffffffffffffffffffffffffffffffffffff1673ffffffffffffffffffffffffffffffffffffffff16815260200190815260200160002060009054906101000a900460ff16610643576040517f08c379a000000000000000000000000000000000000000000000000000000000815260040180806020018281038252601c8152602001807f73656e646572206973206e6f7420636f6e7472616374206f776e65720000000081525060200191505060405180910390fd5b600073ffffffffffffffffffffffffffffffffffffffff166004600083815260200190815260200160002060000160019054906101000a900473ffffffffffffffffffffffffffffffffffffffff1673ffffffffffffffffffffffffffffffffffffffff16141561071c576040517f08c379a00000000000000000000000000000000000000000000000000000000081526004018080602001828103825260158152602001807f6e6f742076616c6964207472616e73616374696f6e000000000000000000000081525060200191505060405180910390fd5b600115156005600083815260200190815260200160002060003373ffffffffffffffffffffffffffffffffffffffff1673ffffffffffffffffffffffffffffffffffffffff16815260200190815260200160002060009054906101000a900460ff161515146107d6576040517f08c379a00000000000000000000000000000000000000000000000000000000081526004018080602001828103825260268152602001806112ae6026913960400191505060405180910390fd5b60006005600083815260200190815260200160002060003373ffffffffffffffffffffffffffffffffffffffff1673ffffffffffffffffffffffffffffffffffffffff16815260200190815260200160002060006101000a81548160ff021916908315150217905550803373ffffffffffffffffffffffffffffffffffffffff167f795394da21278ca39d59bb3ca00efeebdc0679acc420916c7385c2c5d942656f60405160405180910390a350565b60026020528060005260406000206000915054906101000a900460ff1681565b60056020528160005260406000206020528060005260406000206000915091509054906101000a900460ff1681565b60046020528060005260406000206000915090508060000160009054906101000a900460ff16908060000160019054906101000a900473ffffffffffffffffffffffffffffffffffffffff1690806001015490806002018054600181600116156101000203166002900480601f0160208091040260200160405190810160405280929190818152602001828054600181600116156101000203166002900480156109c05780601f10610995576101008083540402835291602001916109c0565b820191906000526020600020905b8154815290600101906020018083116109a357829003601f168201915b5050505050905084565b60035481565b600260003373ffffffffffffffffffffffffffffffffffffffff1673ffffffffffffffffffffffffffffffffffffffff16815260200190815260200160002060009054906101000a900460ff16610a8f576040517f08c379a000000000000000000000000000000000000000000000000000000000815260040180806020018281038252601c8152602001807f73656e646572206973206e6f7420636f6e7472616374206f776e65720000000081525060200191505060405180910390fd5b600073ffffffffffffffffffffffffffffffffffffffff166004600083815260200190815260200160002060000160019054906101000a900473ffffffffffffffffffffffffffffffffffffffff1673ffffffffffffffffffffffffffffffffffffffff161415610b68576040517f08c379a00000000000000000000000000000000000000000000000000000000081526004018080602001828103825260158152602001807f6e6f742076616c6964207472616e73616374696f6e000000000000000000000081525060200191505060405180910390fd5b600015156005600083815260200190815260200160002060003373ffffffffffffffffffffffffffffffffffffffff1673ffffffffffffffffffffffffffffffffffffffff16815260200190815260200160002060009054906101000a900460ff16151514610c22576040517f08c379a000000000000000000000000000000000000000000000000000000000815260040180806020018281038252602c8152602001806112d4602c913960400191505060405180910390fd5b60016005600083815260200190815260200160002060003373ffffffffffffffffffffffffffffffffffffffff1673ffffffffffffffffffffffffffffffffffffffff16815260200190815260200160002060006101000a81548160ff021916908315150217905550803373ffffffffffffffffffffffffffffffffffffffff167f4a504a94899432a9846e1aa406dceb1bcfd538bb839071d49d1e5e23f5be30ef60405160405180910390a3610cd881610dbf565b50565b6000600260003373ffffffffffffffffffffffffffffffffffffffff1673ffffffffffffffffffffffffffffffffffffffff16815260200190815260200160002060009054906101000a900460ff16610d9c576040517f08c379a000000000000000000000000000000000000000000000000000000000815260040180806020018281038252601c8152602001807f73656e646572206973206e6f7420636f6e7472616374206f776e65720000000081525060200191505060405180910390fd5b610da7848484610ffa565b9050610db2816109d0565b9392505050565b60015481565b600015156004600083815260200190815260200160002060000160009054906101000a900460ff16151514610e3f576040517f08c379a00000000000000000000000000000000000000000000000000000000081526004018080602001828103825260288152602001806113006028913960400191505060405180910390fd5b610e4881611124565b15610ff757600060046000838152602001908152602001600020905060018160000160006101000a81548160ff021916908315150217905550600060608260000160019054906101000a900473ffffffffffffffffffffffffffffffffffffffff1673ffffffffffffffffffffffffffffffffffffffff168360010154846002016040518082805460018160011615610100020316600290048015610f245780601f10610f02576101008083540402835291820191610f24565b820191906000526020600020905b815481529060010190602001808311610f10575b505091505060006040518083038185875af1925050503d8060008114610f66576040519150601f19603f3d011682016040523d82523d6000602084013e610f6b565b606091505b50915091508115610fa857837f33e13ecb54c3076d8e8bb8c2881800a4d972b792045ffae98fdf46df365fed7560405160405180910390a2610ff3565b837f526441bb6c1aba3c9a4a6ca1d6545da9c2333c8c48343ef398eb858d72b7923660405160405180910390a260008360000160006101000a81548160ff0219169083151502179055505b5050505b50565b6000600354905060405180608001604052806000151581526020018573ffffffffffffffffffffffffffffffffffffffff168152602001848152602001838152506004600083815260200190815260200160002060008201518160000160006101000a81548160ff02191690831515021790555060208201518160000160016101000a81548173ffffffffffffffffffffffffffffffffffffffff021916908373ffffffffffffffffffffffffffffffffffffffff1602179055506040820151816001015560608201518160020190805190602001906110db929190611208565b509050506001600360008282540192505081905550807fc0ba8fe4b176c1714197d43b9cc6bcf797a4a7461c5fe8d0ef6e184ae7601e5160405160405180910390a29392505050565b6000806000905060008090505b6000805490508110156112005760056000858152602001908152602001600020600080838154811061115f57fe5b9060005260206000200160009054906101000a900473ffffffffffffffffffffffffffffffffffffffff1673ffffffffffffffffffffffffffffffffffffffff1673ffffffffffffffffffffffffffffffffffffffff16815260200190815260200160002060009054906101000a900460ff16156111de576001820191505b6001548214156111f357600192505050611203565b8080600101915050611131565b50505b919050565b828054600181600116156101000203166002900490600052602060002090601f016020900481019282601f1061124957805160ff1916838001178555611277565b82800160010185558215611277579182015b8281111561127657825182559160200191906001019061125b565b5b5090506112849190611288565b5090565b6112aa91905b808211156112a657600081600090555060010161128e565b5090565b9056fe73656e646572206861736e7420636f6e6669726d656420746865207472616e73616374696f6e73656e6465722068617320616c726561647920636f6e6669726d656420746865207472616e73616374696f6e7472616e73616374696f6e20686173206265656e2065786563757465642070726576696f75736c79a165627a7a72305820bc1c63f57d37de661f8beacc593d11e4b6f6b0f61b4c17966140c34b7be8fbcb00297265717569726564206d7573742062652067726561746572207468616e206f776e657273",
  "source": "pragma solidity ^0.5.0;\n\ncontract MultiSignatureWallet {\n    address[] public owners;\n    uint public required;\n    mapping (address => bool) public isOwner;\n\n    uint public transactionCount;\n    mapping (uint => Transaction) public transactions;\n    mapping (uint => mapping (address => bool)) public confirmations;\n\n    struct Transaction {\n      bool executed;\n      address destination;\n      uint value;\n      bytes data;\n    }\n\n    event Deposit(address indexed sender, uint value);\n    event Submission(uint indexed transactionId);\n    event Confirmation(address indexed sender, uint indexed transactionId);\n    event ConfirmationRevoked(address indexed sender, uint indexed transactionId);\n    event Execution(uint indexed transactionId);\n    event ExecutionFailure(uint indexed transactionId);\n\n    /// @dev Fallback function allows to deposit ether.\n    function() external payable {\n        if (msg.value > 0) {\n            emit Deposit(msg.sender, msg.value);\n\t    }\n    }\n\n    modifier validRequirement(uint ownerCount, uint _required) {\n        if (_required > ownerCount || _required == 0 || ownerCount == 0)\n            revert('required must be greater than owners');\n        _;\n    }\n\n    /*\n     * Public functions\n     */\n    /// @dev Contract constructor sets initial owners and required number of confirmations.\n    /// @param _owners List of initial owners.\n    /// @param _required Number of required confirmations.\n    constructor(address[] memory _owners, uint _required) public validRequirement(_owners.length, _required) {\n        for (uint i = 0 ; i<_owners.length ; i++) {\n            isOwner[_owners[i]] = true;\n        }\n        owners = _owners;\n        required = _required;\n    }\n\n    /// @dev Allows an owner to submit and confirm a transaction.\n    /// @param destination Transaction target address.\n    /// @param value Transaction ether value.\n    /// @param data Transaction data payload.\n    /// @return Returns transaction ID.\n    function submitTransaction(address destination, uint value, bytes memory data)\n        public\n        returns (uint transactionId)\n    {\n        require(isOwner[msg.sender], 'sender is not contract owner');\n        transactionId = addTransaction(destination, value, data);\n        confirmTransaction(transactionId);\n    }\n\n    /// @dev Allows an owner to confirm a transaction.\n    /// @param transactionId Transaction ID.\n    function confirmTransaction(uint transactionId) public {\n        require(isOwner[msg.sender], 'sender is not contract owner');\n        require(transactions[transactionId].destination != address(0), 'not valid transaction');\n        require(confirmations[transactionId][msg.sender] == false, 'sender has already confirmed the transaction');\n        confirmations[transactionId][msg.sender] = true;\n        emit Confirmation(msg.sender, transactionId);\n        executeTransaction(transactionId);\n    }\n\n    /// @dev Allows an owner to revoke a confirmation for a transaction.\n    /// @param transactionId Transaction ID.\n    function revokeConfirmation(uint transactionId) public {\n        require(isOwner[msg.sender], 'sender is not contract owner');\n        require(transactions[transactionId].destination != address(0), 'not valid transaction');\n        require(confirmations[transactionId][msg.sender] == true, 'sender hasnt confirmed the transaction');\n        confirmations[transactionId][msg.sender] = false;\n        emit ConfirmationRevoked(msg.sender, transactionId);\n    }\n\n    /// @dev Allows anyone to execute a confirmed transaction.\n    /// @param transactionId Transaction ID.\n    function executeTransaction(uint transactionId) public {\n        require(transactions[transactionId].executed == false, 'transaction has been executed previously');\n        if (isConfirmed(transactionId)) {\n            Transaction storage t = transactions[transactionId];\n            t.executed = true;\n            (bool success, bytes memory returnedData) = t.destination.call.value(t.value)(t.data);\n            if (success)\n                emit Execution(transactionId);\n            else {\n                emit ExecutionFailure(transactionId);\n                t.executed = false;\n            }\n        }\n    }\n\n\t\t/*\n\t\t * (Possible) Helper Functions\n\t\t */\n    /// @dev Returns the confirmation status of a transaction.\n    /// @param transactionId Transaction ID.\n    /// @return Confirmation status.\n    function isConfirmed(uint transactionId) internal view returns (bool) {\n        uint count = 0;\n        for (uint i = 0 ; i<owners.length ; i++) {\n            if (confirmations[transactionId][owners[i]])\n                count += 1;\n            if (count == required)\n                return true;\n        }\n    }\n\n    /// @dev Adds a new transaction to the transaction mapping, if transaction does not exist yet.\n    /// @param destination Transaction target address.\n    /// @param value Transaction ether value.\n    /// @param data Transaction data payload.\n    /// @return Returns transaction ID.\n    function addTransaction(address destination, uint value, bytes memory data)\n        internal\n        returns (uint transactionId)\n    {\n        transactionId = transactionCount;\n        transactions[transactionId] = Transaction({\n            destination: destination,\n            value: value,\n            data: data,\n            executed: false\n        });\n        transactionCount += 1;\n        emit Submission(transactionId);\n    }\n}",
  "sourcePath": "/Users/cristiamdasilva/apps/consensys-bootcamp/multisig-wallet/contracts/MultiSignatureWallet.sol",
  "compiler": {
    "name": "solc",
    "version": "0.5.8+commit.23d335f2.Emscripten.clang"
  },
  "schemaVersion": "3.0.11",
  "updatedAt": "2019-07-09T18:14:13.759Z",
  "devdoc": {
    "methods": {
      "confirmTransaction(uint256)": {
        "details": "Allows an owner to confirm a transaction.",
        "params": {
          "transactionId": "Transaction ID."
        }
      },
      "constructor": {
        "details": "Contract constructor sets initial owners and required number of confirmations.",
        "params": {
          "_owners": "List of initial owners.",
          "_required": "Number of required confirmations."
        }
      },
      "executeTransaction(uint256)": {
        "details": "Allows anyone to execute a confirmed transaction.",
        "params": {
          "transactionId": "Transaction ID."
        }
      },
      "revokeConfirmation(uint256)": {
        "details": "Allows an owner to revoke a confirmation for a transaction.",
        "params": {
          "transactionId": "Transaction ID."
        }
      },
      "submitTransaction(address,uint256,bytes)": {
        "details": "Allows an owner to submit and confirm a transaction.",
        "params": {
          "data": "Transaction data payload.",
          "destination": "Transaction target address.",
          "value": "Transaction ether value."
        },
        "return": "Returns transaction ID."
      }
    }
  },
  "userdoc": {
    "methods": {}
  }
}